S0270000537570657243617042696B652D4669726D776172652D41544D4547413332382E737265637C
S11300000C943D000C945A000C945A000C942B034D
S11300100C94F9010C945A000C945A000C94540753
S11300200C945A000C945A000C945A000C94F8073F
S11300300C945A000C945A000C94DA060C945A004E
S11300400C945A000C945A000C945A000C945A00C4
S11300500C945A000C945A000C9489000C945A0085
S11300600C94F0000C945A003D0124014C015901F8
S11300706801730108013A01360111241FBECFEF54
S1130080D8E0DEBFCDBF11E0A0E0B1E0ECECF2E2DD
S113009002C005900D92A835B107D9F721E0A8E573
S11300A0B1E001C01D92A33BB207E1F70E94B90180
S11300B00C9464110C9400002F913F918FEF9FEFEB
S11300C008952CEF29232030B9F708952FB321FD8B
S11300D0FDCF089530915801303071F3F999ECCF88
S11300E027B720FDE9CFEDCFF5DF92BD81BDF894B0
S11300F0F89A60B57894862F90E00895EBDF92BD6E
S113010081BD60BDF894FA9AF99A7894DFDF91E0A2
S113011008951F920F920FB60F9211248F9381E0CE
S113012080935B018F910F900FBE0F901F901895D5
S1130130EF92FF920F931F93CF93DF93EC012FEE77
S113014040E060E28091A9019091AA010E94160505
S113015020E144E160E28091A9019091AA010E940A
S113016016058E01085F1F4F780180915B0188237B
S1130170E1F3F70162917F01662391F080915901C7
S113018090915A010E947E008091590190915A01E8
S1130190019690935A0180935901CE15DF0529F7F2
S11301A0609690915B019923E1F3809159019091BC
S11301B05A016A910E947E002091590130915A019E
S11301C02F5F3F4F30935A01209359010C171D079D
S11301D041F7DF91CF911F910F91FF90EF90089518
S11301E01F920F920FB60F9211242F933F934F93A8
S11301F05F936F937F938F939F93AF93BF93EF938B
S1130200FF93E09107018E2F90E089309105B8F0BB
S113021085E98093BC0088E080930701FF91EF910A
S1130220BF91AF919F918F917F916F915F914F910A
S11302303F912F910F900FBE0F901F901895FC01C6
S1130240EC5CFF4F0C94430E8091B900887F8031A1
S113025009F068C085E08093070180915C01880FF4
S11302608F5F8093BB0085E88093BC0081E080931E
S11302700601D4CF10920601D1CF8091B900887FB6
S1130280883209F04FC081E08093070195EA90938A
S1130290BC0080930601C2CF8091B900887F88306A
S11302A009F040C083E08093070180915C01880FCE
S11302B0D8CF8091B900887F8831A1F580915E0103
S11302C08823B1F184E08093070180915D01C9CF57
S11302D08091B900887F883229F586E080930701F0
S11302E080915F01BECF8091B900887F803409F48A
S11302F0BACF8835B9F4E0916001F0916101809141
S1130300BB00808381E0809306018091620190911B
S11303106301892B09F47CCFE0916201F0916301C0
S1130320099576CF86E0809307011092060176CF77
S113033010920701CACF909107019830E1F780939A
S11303405C0160935D0140935F0181E080935E01F5
S11303501092B90081E18093B8008091BC0084FDC3
S1130360FCCF82E08093070185EA8093BC0081E0A2
S11303700895CF93DF93CDB7DEB760970FB6F894A7
S1130380DEBF0FBECDBF789485B7806185BF22E004
S113039048EE53E060E070E081E090E00E949E0847
S11303A081110DC080E1E0E1F1E0DE0111960190E0
S11303B00D928A95E1F7CE0101960E9498000E9461
S11303C04F03813059F081E08093660149E169E18E
S11303D070E0CE0101960E94CB04FFCF81E090E053
S11303E060960FB6F894DEBF0FBECDBFDF91CF91FC
S11303F008951F920F920FB60F921124EF92FF925D
S11304000F931F932F933F934F935F936F937F9318
S11304108F939F93AF93BF93EF93FF93CF93DF9308
S1130420CDB7DEB7A897DEBFCDBF26B193B143B138
S1130430287030E0359527959078892F90E0082E24
S1130440892F000C881F990B000C881F991F822B81
S113045042FB992790F9892B8093650180910801CB
S113046081111DC0A8960FB6F894DEBF0FBECDBF94
S1130470DF91CF91FF91EF91BF91AF919F918F91B8
S11304807F916F915F914F913F912F911F910F91A8
S1130490FF90EF900F900FBE0F901F90189588E17A
S11304A0E0E2F1E0DE01119601900D928A95E1F708
S11304B080916401813009F4A0C081E080936401DB
S11304C000916501073009F453C0002309F450C0BA
S11304D010E07801EE0CFF1CF701E00FF11F81E042
S11304E090E08C0F9D1FE80FF91F8081823009F482
S11304F06DC0833009F463C0813009F0B3CF61E08B
S11305008DEA91E00E94150C569AF701E00FF11F55
S113051081E090E08C0F9D1FE80FF91F81818230EC
S113052009F463C0833009F458C0813009F09ACFCC
S113053060E08DEA91E00E94150C5E98569A0E0DCB
S11305401F1DE1E0F0E0EC0FFD1FE00FF11F8281C1
S1130550823009F47BC0833009F473C0813009F020
S113056081CF5C988BB183608BB9109264017ACF90
S113057088E0EFE4F1E0DE01599601900D928A954E
S1130580E1F780914A0189A31AA21BA21CA21DA211
S11305901EA21FA218A6CE0149960E94980080911F
S11305A06B008B7F80936B0080916C00877F8093BE
S11305B06C008BB18C7E8BB91092080153CF61E033
S11305C08EEA91E00E94150C219A9FCF61E08CEA9B
S11305D091E00E94150C559A98CF60E08EEA91E064
S11305E00E94150C2998219AAACF60E08CEA91E028
S11305F00E94150C5D98559AA2CF86E0E8E3F1E0DD
S1130600DE01599601900D928A95E1F718A21F8E8A
S113061080914A0189A31AA21BA21CA21DA21EA298
S11306201FA218A6CE0149960E94980080916900E5
S11306308D7F809369008BB18C7E8BB910920801F9
S113064011CF59988BB181618BB98FCF58988BB1E9
S113065082618BB98ACF1F920F920FB60F92112429
S11306602F933F934F935F936F937F938F939F93B6
S1130670AF93BF93EF93FF930E94F901FF91EF9122
S1130680BF91AF919F918F917F916F915F914F91A6
S11306903F912F910F900FBE0F901F901895EF92DE
S11306A0FF920F931F93CF93DF93CDB7DEB7A89735
S11306B00FB6F894DEBF0FBECDBF249A8AB183690A
S11306C08AB98BB18C7E8BB98AB18F798AB921981A
S11306D03B9884B18B7784B983E08093AD0160E06B
S11306E08DEA91E00E94150C182F60910901709118
S11306F00A0140910B018DEA91E00E94150D11232E
S113070011F081110EC081E0A8960FB6F894DEBFF7
S11307100FBECDBFDF91CF911F910F91FF90EF904E
S1130720089582E08093AC0160E08CEA91E00E943D
S1130730150C182F6091090170910A0140910B0169
S11307408CEA91E00E94150D1123E9F28823D9F275
S11307501092AE0160E08EEA91E00E94150C182F11
S11307606091090170910A0140910B018EEA91E0B8
S11307700E94150D112339F2882329F2789480916F
S1130780680083608093680080916B00846080932C
S11307906B0080916C00886080936C0026B193B1EB
S11307A043B1287030E0359527959078892F90E0F3
S11307B0082E892F000C881F990B000C881F991F85
S11307C0822B42FB992790F9892B809365018091B4
S11307D00801811102C080E097CF88E1E0E2F1E0F6
S11307E0DE01119601900D928A95E1F780916401E2
S11307F0813009F491C081E0809364010091650126
S1130800073009F453C0002309F450C010E0780104
S1130810EE0CFF1CF701E00FF11F81E090E08C0F5C
S11308209D1FE80FF91F8081823009F46EC0833068
S113083009F464C0813079F661E08DEA91E00E94A8
S1130840150C569AF701E00FF11F81E090E08C0F30
S11308509D1FE80FF91F8181823009F48AC083301B
S113086009F47FC0813009F0B6CF60E08DEA91E0F1
S11308700E94150C5E98569A0E0D1F1DE1E0F0E0E3
S1130880EC0FFD1FE00FF11F8281823009F47EC05E
S1130890833009F476C0813009F09DCF5C988BB128
S11308A083608BB91092640180E02ECF88E0EFE47E
S11308B0F1E0DE01599601900D928A95E1F780915D
S11308C04A0189A31AA21BA21CA21DA21EA21FA236
S11308D018A6CE0149960E94980080916B008B7FE8
S11308E080936B0080916C00877F80936C008BB148
S11308F08C7E8BB91092080180E006CF61E08EEA0D
S113090091E00E94150C219A9DCF61E08CEA91E060
S11309100E94150C559A96CF86E0E8E3F1E0DE01DB
S1130920599601900D928A95E1F718A21F8E809135
S11309304A0189A31AA21BA21CA21DA21EA21FA2C5
S113094018A6CE0149960E949800809169008D7F77
S1130950809369008BB18C7E8BB91092080180E082
S1130960D3CE60E08EEA91E00E94150C2998219A7A
S113097083CF60E08CEA91E00E94150C5D98559A53
S11309807BCF59988BB181618BB98CCF58988BB13F
S113099082618BB987CFCF92DF92EF92FF920F9350
S11309A01F93CF93DF9361157105A1F0442391F058
S11309B08B0120E030E068017901CC0CDD1CEE1CD9
S11309C0FF1C0C0D1D1D2E1D3F1D0115184021057A
S11309D0310550F080E0DF91CF911F910F91FF908E
S11309E0EF90DF90CF900895142F7C01EB01CC0F92
S11309F0DD1FC60FD71FCE010E943D0F009751F394
S1130A00F701918380831382128215821482D78323
S1130A10C683412F440F410F4087128611861486E6
S1130A20138616861586178681E0D5CF8F929F92FE
S1130A30AF92BF92CF92DF92EF92FF920F931F93E8
S1130A40CF93DF93EC01E62EB42EA22E8F8588235C
S1130A5071F00C811D812A813B81CE80DF800C15D1
S1130A601D0509F49CC0813081F4F8019FC02A81DE
S1130A703B810C811D812017310709F478C08E81D8
S1130A809F818017910709F48AC088819981F801B0
S1130A90FF24F3949F01220F331FE20FF31FE80F8B
S1130AA0F91FF082F18212820C811D810F5F1F4FAA
S1130AB01D830C838A819B81CE80DF800C151D05EC
S1130AC009F47AC02F85213009F471C18881998194
S1130AD0F801EE0FFF1F0E0F1F1FFC01E00FF11FA7
S1130AE0F082E18212820C811D810F5F1F4F1D83F2
S1130AF00C838A819B81CE80DF800C151D0509F44F
S1130B0069C02F85213009F44CC188819981F8018D
S1130B10EE0FFF1F0E0F1F1FFC01E00FF11FF082ED
S1130B20B18212820C811D810F5F1F4F1D830C83C4
S1130B308A819B81CE80DF800C151D0509F48BC052
S1130B402F85213009F430C1F801EE0FFF1F0E0F7D
S1130B501F1FE881F981E00FF11FF082A182128248
S1130B608C819D8101969D838C8381E00BC0809153
S1130B700701883009F083CF4A2D6B2D8E2D0E94FA
S1130B809B0181E0DF91CF911F910F91FF90EF9036
S1130B90DF90CF90BF90AF909F908F9008951D826B
S1130BA01C8281E08F876801E0E0F0E00217130700
S1130BB001F1888199816CCF1D821C82FF8630E00F
S1130BC020E00817190709F453C088819981032F7D
S1130BD0122F7ECF1D821C8221E02F8730E020E07F
S1130BE00817190709F475C088819981032F122FFA
S1130BF08ECF209789F02885822F90E0A0E0B0E086
S1130C008C0D9D1DA11DB11D0097A140B10520F4BF
S1130C10C11488E0D80610F080E0B4CF4601820EFB
S1130C20911CB401888199810E945E100097A1F300
S1130C30998388839F828E8222E02F871E870D8767
S1130C40DA86C986DC86CB862885F401E21BF109A5
S1130C50FD83EC831DCF1D821C8221E02F8730E0B1
S1130C6020E00817190709F468C0032F122F6CCF6E
S1130C70209791F22885822F90E0A0E0B0E08C0DBF
S1130C809D1DA11DB11D0097A140B10528F6C114F9
S1130C9088E0D80608F64601820E911CB4018881CA
S1130CA099810E945E10009709F4B6CF99838883D6
S1130CB09F828E8222E02F871E870D87DA86C9865F
S1130CC0DC86CB8628858401021B11091D830C83D5
S1130CD0FFCE209709F4A0CF2885822F90E0A0E0D2
S1130CE0B0E08C0D9D1DA11DB11D0097A140B10563
S1130CF008F092CFC11488E0D80608F08DCF4601E1
S1130D00820E911CB401888199810E945E10009723
S1130D1009F482CF998388839F828E8222E02F8771
S1130D201E870D87DA86C986DC86CB8628858401F2
S1130D30021B11091D830C83EACE209709F46CCFA2
S1130D402885822F90E0A0E0B0E08C0D9D1DA11DB0
S1130D50B11D0097A140B10508F05ECFC11488E031
S1130D60D80608F059CF4601820E911CB40188813F
S1130D7099810E945E10009709F44ECF998388836D
S1130D809F828E8282E08F871E870D87DA86C986CE
S1130D90DC86CB8688858401081B11091D830C839E
S1130DA0D3CE302F212F1CCF302F212F5ACF302FCD
S1130DB0212F07CF1F920F920FB60F9211244F933A
S1130DC05F936F937F938F939F93AF93BF93809120
S1130DD07D0190917E01A0917F01B0918001892BCA
S1130DE08A2B8B2B59F58091890190918A01A091CE
S1130DF08B01B0918C01892B8A2B8B2B91F08091E4
S1130E00890190918A01A0918B01B0918C0180930A
S1130E107D0190937E01A0937F01B09380018FEFB9
S1130E2087BDBF91AF919F918F917F916F915F919A
S1130E304F910F900FBE0F901F90189580917D01D8
S1130E4090917E01A0917F01B09180018F3F910527
S1130E50A105B105E1F0D8F04FEF50E060E070E09B
S1130E608FEF87BD80917D0190917E01A0917F01DC
S1130E70B0918001841B950BA60BB70B80937D0169
S1130E8090937E01A0937F01B0938001CACF4091DB
S1130E907D0150917E0160917F0170918001842FCA
S1130EA0552766277727DDCF1F920F920FB60F9233
S1130EB011242F933F934F935F936F937F938F935B
S1130EC09F93AF93BF938091810190918201A091F0
S1130ED08301B0918401892B8A2B8B2B09F051C09B
S1130EE02091A1013091A2014091A3015091A4014C
S1130EF06091A5017091A6018091A7019091A8012C
S1130F00A1E00E94050F2093A1013093A201409318
S1130F10A3015093A4016093A5017093A60180934B
S1130F20A7019093A80180918D0190918E01A091C9
S1130F308F01B0919001892B8A2B8B2B99F0809192
S1130F408D0190918E01A0918F01B09190018093B9
S1130F50810190938201A0938301B09384018FEF68
S1130F608093B300BF91AF919F918F917F916F91C7
S1130F705F914F913F912F910F900FBE0F901F9053
S1130F8018958091810190918201A0918301B09183
S1130F9084018F3F9105A105B105E9F0E0F04FEF21
S1130FA050E060E070E08FEF8093B30080918101A6
S1130FB090918201A0918301B0918401841B950BCF
S1130FC0A60BB70B8093810190938201A0938301B8
S1130FD0B0938401C7CF4091810150918201609107
S1130FE0830170918401842F552766277727DCCFEE
S1130FF01F920F920FB60F9211242F933F934F938A
S11310005F936F937F938F939F93AF93BF938091DD
S1131010790190917A01A0917B01B0917C01892B97
S11310208A2B8B2B09F053C02091910130919201AE
S113103040919301509194016091950170919601B2
S11310408091970190919801A1E00E94050F20934F
S113105091013093920140939301509394016093D2
S113106095017093960180939701909398018091D4
S1131070850190918601A0918701B0918801892B07
S11310808A2B8B2BA9F08091850190918601A091E8
S11310908701B09188018093790190937A01A0939C
S11310A07B01B0937C018FEF80938900809388004B
S11310B0BF91AF919F918F917F916F915F914F916C
S11310C03F912F910F900FBE0F901F901895809114
S11310D0790190917A01A0917B01B0917C010097F4
S11310E0A140B105F8F04FEF5FEF60E070E08FEFE3
S11310F09FEF90938900809388008091790190916B
S11311007A01A0917B01B0917C01841B950BA60B05
S1131110B70B8093790190937A01A0937B01B093EC
S11311207C01C6CF4091790150917A0160917B0195
S113113070917C01CA0166277727DBCF2F923F92FB
S11311404F925F926F927F928F929F92AF92BF92D3
S1131150CF92DF92EF92FF920F931F93CF93DF937F
S1131160CDB7DEB7A1970FB6F894DEBF0FBECDBFE3
S113117040904B0150904C0160904D0170904E0195
S1131180411451046104710409F4EDC04115510581
S11311906105710509F4E7C02B8F4C8F5D8F6E8F4D
S11311A07F8F1C015A016B01E12CF12C87014B87C5
S11311B0BC86CD86DE86EF86F88A098B1A8B7C0185
S11311C000E010E0EB8AFC8A0D8B1E8BC801B7018E
S11311D0A30192010E94540EE12CF12C00E010E0D6
S11311E00E94810E263931054105510561057105BD
S11311F08105910509F008F4B6C02B893C894D8915
S11312005E89C301B2010E941F0E5B016C01E12CD7
S1131210F12C87016B8BBC8ACD8ADE8AEF8AF88E2B
S1131220098F1A8FAB84BC84CD84DE84E12CF12C2D
S113123000E010E02B893C894D895E8960E070E014
S113124080E090E00E94810E2B87832E942E452E01
S1131250562E672E782E98A30B8D013009F49DC06D
S113126008F416C1023009F07EC0809170008D7FB1
S1131270809370002B85382D492D542D652D762DA6
S1131280872D98A122503F4F4F4F5F4F6F4F7F4F95
S11312908F4F9F4FAA24AA94B12CC12CD12CE12C9E
S11312A0F12C00E010E00E94810E942F852FA901FB
S11312B0692F782F413034E053076105710508F038
S11312C04BC19B8D892F90E09C878B87880F991F3A
S11312D0880F991F99A388A3FC01EB57FE4F108236
S11312E01182128213828AE0E0E4F1E0DE011196B9
S11312F001900D928A95E1F789809A80C401A0E05B
S1131300B0E084179507A607B70708F05FC18B8084
S11313109C80C401A0E0B0E084179507A607B70736
S113132008F054C18D809E80C401A0E0B0E0841711
S11313309507A607B70708F049C18F809884C401B0
S1131340A0E0B0E084179507A607B70708F03EC1F0
S113135089849A84C401A0E0B0E084179507A607A5
S1131360B70708F033C180E0A1960FB6F894DEBF4A
S11313700FBECDBFDF91CF911F910F91FF90EF90E2
S1131380DF90CF90BF90AF909F908F907F906F90A1
S11313905F904F903F902F90089580916E008D7FC5
S11313A080936E002B85382D492D542D652D762D77
S11313B0872D98A122503F4F4F4F5F4F6F4F7F4F64
S11313C08F4F9F4FAA24AA94B12CC12CD12CE12C6D
S11313D0F12C00E010E00E94810E942F852FA901CA
S11313E0692F782F413024E052076105710508F414
S11313F068CF2B85382D492D542D652D762D872DBD
S113140098A10AE00E94E00EC901DA0180938901E3
S113141090938A01A0938B01B0938C0180918901F0
S113142090918A01A0918B01B0918C0180937D01F0
S113143090937E01A0937F01B093800182E084BDEC
S113144095E095BD80936E008FEF87BD01E010E0BD
S11314501C870B8724E030E039A328A3F801E35F5D
S1131460FE4F81E08083E8A1F9A1E359FE4FAC8CE3
S1131470BD8CCE8CDF8CA082B182C282D382EB85FC
S1131480FC85EE0FFF1FE959FE4F318220826CCF9D
S113149080916F008D7F80936F002B85382D492DAF
S11314A0542D652D762D872D98A1225031094F4F4B
S11314B05F4F6F4F7F4F8F4F9F4FAA24AA94BB2437
S11314C0BA94C12CD12CE12CF12C00E010E00E9444
S11314D0810E942F852FA901692F782F413014E0B4
S11314E051076105710508F4ECCE2B85382D492D83
S11314F0542D652D762D872D98A10AE00E94E00ECB
S1131500C901DA018093850190938601A093870134
S1131510B09388018091850190918601A091870103
S1131520B09188018093790190937A01A0937B0113
S1131530B0937C018DE0809381008FEF80938900CC
S11315408093880082E080936F001C861B8619A21A
S113155018A2EB85FC8583CF2B85382D492D542D7E
S1131560652D762D872D98A10AE00E94E00EC90111
S1131570DA0180938D0190938E01A0938F01B09333
S1131580900180918D0190918E01A0918F01B09175
S113159090018093810190938201A0938301B09381
S11315A084013B8D3093B00087E08093B100309389
S11315B070008FEF8093B30042E050E05C874B876C
S11315C068E070E079A368A3FA0149CF2C8D3D8DC2
S11315D04E8D5F8DBC01CD010E941F0E2B013C017D
S11315E0611571058105910509F4BDCEDC01CB01BE
S11315F0B695A795979587955C016D019C01A60109
S113160060E070E080E090E0AB88BC88CD88DE8844
S1131610E12CF12C00E010E00E94FC0E6301520169
S1131620E12CF12C87014B8ABC8ACD8ADE8AEF8AB1
S1131630F88E098F1A8FE12CF12C00E010E00E9443
S1131640810EC901DA010097A105B10509F48BCE19
S11316503B8D31503230B8F1BB8CB1103BC0009798
S113166001E0A007B10508F07ECE30918100387FFB
S11316703093810030E48316910409F4ACC008F07F
S113168078C051E08516910409F49FC068E086167D
S1131690910409F068CE309181003260309381006A
S11316A030918100386030938100892F9A2FAB2FBD
S11316B0BB278093890082E080936F002093880089
S11316C0EB85FC85CCCE8F3F9105A105B10511F0CA
S11316D008F049CE1B8D113061F138F2123009F057
S11316E042CE8091B100887F8093B10070E4871668
S11316F0910409F47CC008F059C091E08916910462
S113170009F46FC0A8E08A16910409F02CCE8091E8
S1131710B10082608093B1008091B00082608093B8
S1131720B00082E0809370002093B300EB85FC85C9
S113173096CE85B5887F85BD00E48016910409F4B2
S113174060C038F531E08316910409F464C048E0C0
S11317508416910409F007CE85B5826085BD84B5F1
S1131760826084BD82E080936E0027BDEB85FC859A
S113177076CE811471E0970609F447C08114E4E041
S11317809E0609F0F0CD30918100356030938100E0
S113179087CF811451E0950681F1811464E09606A7
S11317A009F0E1CD85B5856085BDD9CF8114B1E05F
S11317B09B06A9F18114E4E09E0609F0D4CD809142
S11317C0B10087608093B100A7CF30918100316070
S11317D03093810065CF3091810033603093810074
S11317E05FCF8091B10081608093B10095CF8091EB
S11317F0B10084608093B1008FCF85B5846085BDCE
S1131800AECF85B5836085BDAACF309181003460A9
S11318103093810045CF85B5816085BDA0CF80918F
S1131820B10086608093B10077CFFC018081823063
S113183009F48EC018F1843009F470C008F453C060
S1131840853009F04EC082E080930C01662309F4D0
S1131850C8C0613009F045C080910F01813011F496
S1131860109270008091B0008C7C8093B0008091C5
S1131870B00083628093B00081E00895882349F129
S1131880813079F510920C01662309F49CC0613013
S113189041F580910D01813009F4C1C0809180002F
S11318A08C7C8093800080918100877E809381006E
S11318B080918000816080938000809181008860A5
S11318C0809381008091800080628093800081E019
S11318D0089510920C01662309F494C0613009F450
S11318E052C080E0089581E080930C01662309F4DE
S11318F084C06130B1F780910E01813009F48CC04D
S113190084B58C7384BD85B5877F85BD84B58360BC
S113191084BD84B5806884BD81E0089582E08093AD
S11319200C01662309F456C06130D9F680910F0189
S1131930813011F4109270008091B0008C73809308
S1131940B0008091B00083688093B00081E0089576
S113195081E080930C01662309F44AC0613009F6E2
S113196080910E01813009F45DC084B58C7C84BD06
S113197085B5877F85BD84B5836084BD84B5806269
S113198084BD81E0089580910D01813009F441C046
S1131990809180008C738093800080918100877E89
S11319A08093810080918000816080938000809189
S11319B0810088608093810080918000806880939A
S11319C0800081E00895809180008F7C8093800066
S11319D081E008958091B0008F738093B00081E01E
S11319E008958091B0008F7C8093B00081E00895C9
S11319F084B58F7C84BD81E0089584B58F7384BDE4
S1131A0081E00895809180008F738093800081E04D
S1131A10089510926F00BCCF10926E0071CF109297
S1131A206F003CCF10926E00A0CF9B01453698F515
S1131A30FC018081823009F49BC078F1843009F480
S1131A4088C008F465C0853031F5EFEF4E9FC001C2
S1131A501124C29664E670E00E942F0E6093B400D5
S1131A6082E080930C018091B100887F8093B10063
S1131A702034310509F4D7C008F094C02130310571
S1131A8009F4C3C02830310531F48091B10082607B
S1131A908093B100A2C080E00895882349F1813089
S1131AA0D1F75FEF459FC0011124C29664E670E050
S1131AB00E942F0E70938B0060938A0010920C0189
S1131AC080918100887F809381002034310509F45E
S1131AD0B0C008F075C02130310509F48CC028303D
S1131AE03105C9F68091810082608093810075C0C0
S1131AF0FFEF4F9FC0011124C29664E670E00E947C
S1131B002F0E709389006093880010920C01D8CF37
S1131B10FFEF4F9FC0011124C29664E670E00E945B
S1131B202F0E67BD81E080930C0185B5887F85BD4C
S1131B302034310509F473C048F52130310509F426
S1131B406AC02830310509F0A6CF85B5826085BD0D
S1131B5044C05FEF459FC0011124C29664E670E063
S1131B600E942F0E6093B30082E080930C017BCF20
S1131B70EFEF4E9FC0011124C29664E670E00E940C
S1131B802F0E68BD81E080930C01CFCF211581E039
S1131B903807B9F12115344009F07DCF85B585604A
S1131BA085BD1BC02115F1E03F07F9F02115344034
S1131BB009F071CF8091B10087608093B1000DC0AE
S1131BC02115F1E03F0759F02115344009F063CFA6
S1131BD08091810085608093810081E008958091E7
S1131BE08100846080938100F8CF8091B100866089
S1131BF08093B100F2CF8091810081608093810055
S1131C00ECCF85B5846085BDE8CF8091B10081605B
S1131C108093B100E2CF85B5816085BDDECF85B507
S1131C20836085BDDACF8091B10084608093B10078
S1131C30D4CF80918100836080938100CECFDB017B
S1131C408F939F930E94490EBF91AF91A29F800DE5
S1131C50911DA39F900DB29F900D1124089597FBA1
S1131C60072E16F4009407D077FD09D00E94110FB7
S1131C7007FC05D03EF4909581959F4F089570958B
S1131C8061957F4F0895EE0FFF1F0590F491E02DAD
S1131C9009940E94250FA59F900DB49F900DA49FB9
S1131CA0800D911D11240895E894DF93CF93FC01D6
S1131CB0DB010E94250F7F936F93E9019A01AC0128
S1131CC0BF93AF933F932F93DF010E94250F26F418
S1131CD06C1B7D0B820B930B9E01EB01FC010E949C
S1131CE0340FAF91BF912F913F910E94340FBE01E9
S1131CF0CF01F9012F913F91CF91DF91089568941D
S1131D0001C0E8948F929F92CF93DF930E948D0E2F
S1131D10DF91CF919F908F90089588249924F401A6
S1131D20E401B0E49F93AA279A158B049C04ED0563
S1131D30FE05CF05D007A10798F4AD2FDC2FCF2FD8
S1131D40FE2FE92D982C892E982F872F762F652F1B
S1131D50542F432F322F2227B85031F7BF9127C079
S1131D601B2EBF91BB27220F331F441F551F661F15
S1131D70771F881F991F881C991CEE1FFF1FCC1FFB
S1131D80DD1FAA1FBB1F8A149B04EC05FD05CE05AD
S1131D90DF05A007B10748F08A189B08EC09FD0984
S1131DA0CE09DF09A00BB10B21601A94E1F62EF4E1
S1131DB09401AF01BE01CD01000C089597FB10F80A
S1131DC0169400080F93083098F00850232F342FEE
S1131DD0452F562F672F782F892F902DF4CF0594F8
S1131DE0979587957795679557954795379527954F
S1131DF00A95AAF70F9108952A0D3B1D4C1D5D1DF0
S1131E006E1D7F1D801F911F08950024A7FD00945F
S1131E102A0F301D401D501D601D701D801D901D1A
S1131E200895AA1BBB1B51E107C0AA1FBB1FA6171D
S1131E30B70710F0A61BB70B881F991F5A95A9F76F
S1131E4080959095BC01CD010895A29FB001B39FE8
S1131E50C001A39F700D811D1124911DB29F700DAF
S1131E60811D1124911D08950E94250F460F571FAF
S1131E70C81FD91F08F4319608950F931F93CF9369
S1131E80DF938230910510F482E090E0E091B1019B
S1131E90F091B20120E030E0A0E0B0E0309719F119
S1131EA0408151810281138148175907C8F0841772
S1131EB0950769F4109731F012960C9312971396C4
S1131EC01C9327C00093B1011093B20122C02115C5
S1131ED0310519F04217530718F49A01BD01EF01B7
S1131EE0DF01F801DBCF21153105F9F0281B390B8F
S1131EF02430310580F48A819B816115710521F0BC
S1131F00FB019383828304C09093B2018093B10157
S1131F10FE01329644C0FE01E20FF31F81939193B8
S1131F2022503109398328833AC02091AF0130917E
S1131F30B001232B41F4209102013091030130932D
S1131F40B0012093AF0120910001309101012115CE
S1131F50310541F42DB73EB740910401509105017C
S1131F60241B350BE091AF01F091B001E217F307A8
S1131F70A0F42E1B3F0B2817390778F0AC014E5FF5
S1131F805F4F2417350748F04E0F5F1F5093B00181
S1131F904093AF018193919302C0E0E0F0E0CF0160
S1131FA0DF91CF911F910F910895CF93DF93009705
S1131FB009F481C0FC01329713821282A091B1010D
S1131FC0B091B201109781F420813181820F931F67
S1131FD02091AF013091B0012817390751F5F093E2
S1131FE0B001E093AF0167C0ED0120E030E0CE170F
S1131FF0DF0740F44A815B819E0141155105F1F0F0
S1132000EA01F5CFD383C28340815181840F951FA8
S1132010C817D90759F488819981840F951F0296AE
S1132020918380838A819B819383828321153105E7
S113203029F4F093B201E093B1013DC0E901FB83BF
S1132040EA8349915991C40FD51FEC17FD0761F438
S113205080819181840F951F0296E9019983888379
S1132060828193819B838A83E0E0F0E012968D91D4
S11320709C911397009719F0FD01DC01F7CF8D9126
S11320809C9111979D012E5F3F4F820F931F2091CA
S1132090AF013091B0012817390769F4309729F45A
S11320A01092B2011092B10102C013821282B09355
S11320B0B001A093AF01DF91CF910895A0E0B0E00B
S11320C0E4E6F0E10C943111EC01009721F4CB012A
S11320D00E943D0FB4C0FC01E60FF71F9C01225083
S11320E03109E217F30708F4A8C0D9010D911C9136
S11320F0119706171707B0F00530110508F49BC0B7
S1132100C80104978617970708F495C0025011096F
S1132110061B170B019311936D937C93CF010E94BF
S1132120D50F89C05B01A01AB10A4C01800E911E23
S1132130A091B101B091B201612C712CE12CF12C70
S1132140109709F446C08D919C911197A815B90573
S1132150B1F56C0142E0C40ED11CCA14DB0478F161
S11321604C018A189B08640142E0C40ED11C1296EB
S1132170BC9012971396AC91B5E0CB16D10440F005
S1132180B282A38391828082D9016D937C9309C02A
S11321900E5F1F4F800F911FF90191838083EB2DF8
S11321A0FA2FE114F10431F0D7011396FC93EE9366
S11321B0129741C0F093B201E093B1013CC068169C
S11321C0790608F43C017D0112960D90BC91A02D76
S11321D0B7CF8091AF019091B00188169906E1F4D0
S11321E066167706C8F4809100019091010100976A
S11321F041F48DB79EB74091040150910501841BB1
S1132200950BE817F907C8F4F093B001E093AF0118
S1132210F901718360830FC0CB010E943D0F7C01E3
S1132220009759F0A801BE010E942411CE010E941A
S1132230D50FC70104C0CE0102C080E090E0CDB745
S1132240DEB7EEE00C944D11FB01DC0102C00190FD
S11322500D9241505040D8F708952F923F924F92DB
S11322605F926F927F928F929F92AF92BF92CF9222
S1132270DF92EF92FF920F931F93CF93DF93CDB72B
S1132280DEB7CA1BDB0B0FB6F894DEBF0FBECDBFA3
S113229009942A88398848885F846E847D848C8474
S11322A09B84AA84B984C884DF80EE80FD800C817D
S11322B01B81AA81B981CE0FD11D0FB6F894DEBF60
S10F22C00FBECDBFED010895F894FFCFD0
S11322CC0000B301200001080108005A02020202B6
S11322DC54494D455231000000000000000000003C
S11322EC00000001020303010203020102030101C5
S11322FC03020201030000004D4F544F5200000032
S113230C0100080040000001000402002D31014DC1
S10B231C4F544F522048000009
S9030000FC
