:100000000C9434000C9451000C9451000C94510049
:100010000C9451000C9451000C9451000C9451001C
:100020000C9451000C9451000C9451000C9453000A
:100030000C9451000C9451000C9451000C945100FC
:100040000C9451000C9451000C9451000C945100EC
:100050000C9451000C9451000C9451000C945100DC
:100060000C9451000C94510011241FBECFEFD8E026
:10007000DEBFCDBF11E0A0E0B1E0ECEDF5E002C0E5
:1000800005900D92AA30B107D9F721E0AAE0B1E0BE
:1000900001C01D92AA31B207E1F70E941B020C9425
:1000A000EC020C9400001F920F920FB60F921124D5
:1000B0002F933F934F935F936F937F938F939F9370
:1000C000AF93BF9380910E0190910F01A091100109
:1000D000B0911101892B8A2B8B2BC1F52091120134
:1000E0003091130140911401509115016091160156
:1000F000709117018091180190911901A1E00E945F
:10010000D1022093120130931301409314015093B4
:100110001501609316017093170180931801909355
:10012000190195B181E0892785B980910A019091E3
:100130000B01A0910C01B0910D0180930E019093E1
:100140000F01A0931001B093110146C080910E01E0
:1001500090910F01A0911001B09111018F5F9F4FFD
:10016000A109B10980930E0190930F01A093100192
:10017000B093110180910E0190910F01A091100197
:10018000B09111010097A140B10534F580910E01A5
:1001900090910F01A0911001B09111010197A10957
:1001A000B109892F9A2FAB2FBB27A7FDBA95809352
:1001B000890080910E0190910F01A0911001B091E2
:1001C000110181508093880010920E0110920F014E
:1001D0001092100110921101BF91AF919F918F91D8
:1001E0007F916F915F914F913F912F910F900FBE33
:1001F0000F901F9018952F923F924F925F926F929F
:100200007F928F929F92AF92BF92CF92DF92EF92A6
:10021000FF920F931F93CF93DF93CDB7DEB769970C
:100220000FB6F894DEBF0FBECDBF4B8B5C8B6D8BD2
:100230007E8B1092120110921301109214011092F1
:1002400015011092160110921701109218011092C8
:100250001901DC0120E032E14AE750E00E94490246
:100260002B013C019B01AC0160E070E0CB014B86AF
:100270003C874D875E876F87788B898B9A8B8B89BC
:100280009C89AD89BE898C019D015C016901E12CCD
:10029000F12C00E010E02B853C854D855E8560E00B
:1002A00070E080E090E00E945602922E832E342E61
:1002B000252E6B877F8B888F998F80916F0082604E
:1002C00080936F00AA24AA94BB24BA94C12CD12C89
:1002D000292D382D432D522D6B857F89888D998D41
:1002E0000E945602022F132F9A01013094E0190741
:1002F0002105310570F1292D382D432D522D6B85A7
:100300007F89888D998D0AE00E94B502C901DA01C2
:1003100080930A0190930B01A0930C01B0930D01FF
:1003200080910A0190910B01A0910C01B0910D01F7
:1003300080930E0190930F01A0931001B0931101CF
:100340008DE0809381008FEF8093890080938800F7
:1003500058C08AE0E0E0F1E0DE01119601900D92D4
:100360008A95E1F7FE013196CE010B96A191B191EC
:10037000AD0160E070E0401751076207730728F491
:100380008E179F0799F7A1E0B0E0A034B105A9F05E
:1003900040F4A130B10579F0A830B10599F482E0BC
:1003A0000FC0A11521E0B20751F0A11534E0B30749
:1003B00049F485E005C081E003C083E001C084E02A
:1003C00080938100809181008860809381002B89D7
:1003D0003C894D895E890E9449029B01AC0196953A
:1003E0008795779567950E942702420E531E641EDB
:1003F000751EBB27A72D962D852D809389004092D1
:10040000880081E069960FB6F894DEBF0FBECDBFBD
:10041000DF91CF911F910F91FF90EF90DF90CF90E0
:10042000BF90AF909F908F907F906F905F904F9014
:100430003F902F9008957894209A219A41E050E0BF
:1004400060E070E082E090E00E94FB00FFCFA1E25C
:100450001A2EAA1BBB1BFD010DC0AA1FBB1FEE1F3E
:10046000FF1FA217B307E407F50720F0A21BB30B89
:10047000E40BF50B661F771F881F991F1A9469F705
:1004800060957095809590959B01AC01BD01CF0161
:1004900008950E94DD02A59F900DB49F900DA49F2A
:1004A000800D911D11240895689401C0E8948F92E5
:1004B0009F92CF93DF930E946202DF91CF919F9032
:1004C0008F90089588249924F401E401B0E49F9367
:1004D000AA279A158B049C04ED05FE05CF05D007CD
:1004E000A10798F4AD2FDC2FCF2FFE2FE92D982CEC
:1004F000892E982F872F762F652F542F432F322F39
:100500002227B85031F7BF9127C01B2EBF91BB27C0
:10051000220F331F441F551F661F771F881F991F07
:10052000881C991CEE1FFF1FCC1FDD1FAA1FBB1FBD
:100530008A149B04EC05FD05CE05DF05A007B10775
:1005400048F08A189B08EC09FD09CE09DF09A00BC9
:10055000B10B21601A94E1F62EF49401AF01BE01B3
:10056000CD01000C089597FB10F8169400080F9326
:10057000083098F00850232F342F452F562F672F1F
:10058000782F892F902DF4CF05949795879577959F
:10059000679557954795379527950A95AAF70F912F
:1005A00008950024A7FD00942A0F301D401D501D02
:1005B000601D701D801D901D0895A29FB001B39F06
:1005C000C001A39F700D811D1124911DB29F700D5C
:0C05D000811D1124911D0895F894FFCFA7
:0A05DC0001000800400000010004C7
:00000001FF
